:100000000C942A000C9447000C9447000C94470071
:100010000C9447000C9447000C9447000C94470044
:100020000C9447000C9447000C9447000C94470034
:100030000C9447000C9447000C9447000C94470024
:100040000C9447000C9447000C9447000C94470014
:100050000C94470011241FBECFE5D8E0DEBFCDBF12
:1000600010E0A0E6B0E0EEEAF4E002C005900D92E8
:10007000A036B107D9F710E0A0E6B0E001C01D92AC
:10008000A036B107E1F70E9459000C9455020C9478
:10009000000080E487B987E886B9089597B1877032
:1000A000982B97B9369A349BFECF349A3D9A85B1F6
:1000B00008951ABA8FEF87BB0E9449004424552443
:1000C000AA24AA94662477246394942C852CE201B4
:1000D0000E9449008FEF9FE80197F1F700C00000F0
:1000E00080E00E944E00B82E0E944900AFEFBFE8AA
:1000F0001197F1F700C0000081E00E944E00B0E8C7
:10010000BB1508F04AC0209709F047C0682F70E07F
:1001100064567040882777FD8095982F0E943E0195
:100120002DEC3CEC4CE45EE30E94F20120E030E078
:1001300040EA50E40E94D400C62ED72EE82EF92EB5
:10014000A8BA862F9D2DAE2DBF2DBC01CD0120E07C
:1001500030E0A9010E94EE018823ECF0C92DD82DD2
:100160008FEF9FEFACE281509040A040E1F700C0DC
:1001700000002196BE01882777FD8095982F0E9468
:100180003E010C2D1D2D2E2D3F2DA90198010E9401
:10019000380118162CF718BAE30190E8B91608F0E0
:1001A00097CF18BA94CF5058BB27AA270ED0DCC0DF
:1001B000CDD030F0D2D020F031F49F3F11F41EF4B6
:1001C000C2C00EF4E095E7FBB8C0E92FDED080F3A3
:1001D000BA17620773078407950718F071F49EF544
:1001E000F6C00EF4E0950B2EBA2FA02D0B01B9012D
:1001F00090010C01CA01A0011124FF27591B99F09D
:10020000593F50F4503E68F11A16F040A22F232FA8
:10021000342F4427585FF3CF469537952795A795F8
:10022000F0405395C9F77EF41F16BA0B620B730B9F
:10023000840BBAF09150A1F0FF0FBB1F661F771F10
:10024000881FC2F70EC0BA0F621F731F841F48F4C5
:10025000879577956795B795F7959E3F08F0B3CF4B
:100260009395880F08F09927EE0F97958795089535
:1002700040D008F481E00895E89409C097FB3EF46B
:1002800090958095709561957F4F8F4F9F4F9923E3
:10029000A9F0F92F96E9BB279395F6958795779561
:1002A0006795B795F111F8CFFAF4BB0F11F460FF21
:1002B0001BC06F5F7F4F8F4F9F4F16C0882311F079
:1002C00096E911C0772321F09EE8872F762F05C08D
:1002D000662371F096E8862F70E060E02AF09A9528
:1002E000660F771F881FDAF7880F9695879597F91D
:1002F0000895990F0008550FAA0BE0E8FEEF1616B7
:100300001706E807F907C0F012161306E407F50709
:1003100098F0621B730B840B950B39F40A2661F07D
:10032000232B242B252B21F408950A2609F4A14020
:10033000A6958FEF811D811D089597F99F6780E82D
:1003400070E060E008959FEF80EC089500240A9427
:100350001616170618060906089500240A941216A0
:100360001306140605060895092E0394000C11F4D3
:10037000882352F0BB0F40F4BF2B11F460FF04C080
:100380006F5F7F4F8F4F9F4F089557FD9058440FD9
:10039000551F59F05F3F71F04795880F97FB991FE4
:1003A00061F09F3F79F087950895121613061406A1
:1003B000551FF2CF4695F1DF08C01616170618062E
:1003C000991FF1CF86957105610508940895E89409
:1003D000BB2766277727CB0197F908958ADF08F4B2
:1003E0008FEF08950BD0C0CFB1DF28F0B6DF18F043
:1003F000952309F0A2CFA7CF1124EACFC6DFA0F33F
:10040000959FD1F3950F50E0551F629FF001729FA9
:10041000BB27F00DB11D639FAA27F00DB11DAA1FC8
:10042000649F6627B00DA11D661F829F2227B00D15
:10043000A11D621F739FB00DA11D621F839FA00DA0
:10044000611D221F749F3327A00D611D231F849FF0
:10045000600D211D822F762F6A2F11249F57504047
:100460008AF0E1F088234AF0EE0FFF1FBB1F661FE2
:10047000771F881F91505040A9F79E3F510570F09B
:100480005CCFA6CF5F3FECF3983EDCF38695779583
:100490006795B795F795E7959F5FC1F7FE2B880F96
:0E04A000911D9695879597F90895F894FFCFD2
:00000001FF
